:020000040800F2
:10000000C82E0020A10100084D2A0008F927000889
:10001000492A000879110008953100080000000005
:10002000000000000000000000000000C12B0008DC
:100030007D11000800000000512A0008C52B0008AF
:10004000BB010008BB010008BB010008BB010008A0
:10005000BB010008BB010008BB010008BB01000890
:10006000BB010008BB010008BB010008BB01000880
:10007000BB010008BB010008BB010008BB01000870
:10008000BB010008BB010008BB010008BB01000860
:10009000BB010008BB010008BB010008BB01000850
:1000A000BB010008BB010008BB010008BB01000840
:1000B000812C00080000000000000000BB010008C7
:1000C000BB0100080000000000000000BB010008A8
:1000D00000000000BB010008BB0100080000000098
:1000E000BB010008BB010008000000000000000088
:1000F0000000000000000000000000000000000000
:10010000000000000000000000000000BB0100082B
:100110000000000000000000BB010008BB01000857
:10012000BB010008BB010008BB010008BB010008BF
:10013000BB010008000000000000000000000000FB
:10014000BB010008BB010008BB010008BB0100089F
:10015000BB010008BB010008BB010008BB0100088F
:10016000BB010008BB010008BB0100080000000043
:10017000BB010008BB0100080000000000000000F7
:10018000BB010008BB010008BB010008DFF80CD070
:1001900000F0A0FD0048004721340008C82E0020D0
:1001A0000648804706480047FEE7FEE7FEE7FEE711
:1001B000FEE7FEE7FEE7FEE7FEE7FEE76D2C000840
:1001C0008D0100082DE9F05F0546002092469B4610
:1001D00088460646814640241BE02846414647465D
:1001E000224600F012FC53465A46C01A914110D3E1
:1001F00011461846224600F0F9FB2D1A67EB01085C
:100200004F4622460120002100F0F0FB17EB0009C9
:100210004E41201EA4F10104DFDC484631462A4647
:10022000434600F000B830BCBDE8C09F40EA01037F
:100230009B0703D009E008C9121F08C0042AFAD29C
:1002400003E011F8013B00F8013B521EF9D2704760
:10025000D2B201E000F8012B491EFBD27047002208
:10026000F6E710B513460A4604461946FFF7F0FFB5
:10027000204610BD30B504460020034600E05B1C5C
:10028000934203D2E05CCD5C401BF8D030BD00004F
:100290000FB400B589B00BA800906A4603480A99CC
:1002A00000F0E4FB09B05DF814FB00000000002042
:1002B0002DE9FF5F1D464FF0FF3BD5E90146914612
:1002C0005F464FF00008A9697F1C01988847296A9A
:1002D000824688470028F6D1BAF1FF3F0CD024F4BB
:1002E000C064002E19DD600614D5BAF12B0F09D0B9
:1002F000BAF12D0F0ED103E0584604B000F07EB8DD
:1003000044F48064A9697F1C01988847761E824660
:10031000002E02DDBAF1300F03D0B9F1000F26D064
:1003200032E0A969761E44F400747F1C0198884766
:100330008246002E05DDBAF1780F06D0BAF1580FCB
:1003400003D0B9F1000F10D01EE0B9F1000F02D0B8
:10035000B9F1100F18D1A969761E24F400747F1C1E
:10036000019888478246102002E0082000E00A2019
:10037000814609E008FB0908A969761E44F4007467
:100380007F1C019888478246002E05DD494650466D
:1003900000F05DFB0028EDDAE96901988847A005C7
:1003A00002D46FF00100A8E7E00725D1600613D55D
:1003B000600502D5C8F1000000E0404629680A1D2A
:1003C0002A600968220501D5087015E0220701D5C9
:1003D000088011E008600FE02868011D29600068AE
:1003E000210502D580F8008006E0210702D5A0F89B
:1003F000008001E0C0F8008038467EE730BCBDE8F0
:10040000C09F00002DE9FF4F087883B09946FF2870
:1004100005D0491C2D2804D00024002008E000202D
:100420000BE00124F9E700EB800003EB4000491CDE
:100430000B78FF2BF7D104B14042002302931478CC
:1004400019461D462D2C01D02B2C04D1521C2D2CCD
:1004500013D000240294AA461478FF2C0FD00A254A
:10046000A3FB057801FB05814FF0000C03FB0C1189
:10047000521CE3194AEB0101EEE70124EAE781444B
:1004800053EA010002D019F5C87F06DA039800216B
:10049000C0E9001107B000F065B90025AE4E2F4647
:1004A000DFF8B882184600F0BDFBCDE90001B9F1D4
:1004B000000002DAC9F1000400E004460023A74A64
:1004C0001AEB030B42EB045A12E0E00707D02A466E
:1004D00033463846414600F030FB074688462A46F8
:1004E00033461046194600F028FB05460E466410B8
:1004F000002CEAD1DDE90001B9F1000F5A4653465C
:1005000006DA00F0E1F93A46434600F0DDF905E08D
:1005100000F013FB3A46434600F00FFB029A0AB183
:1005200081F00041039AC2E90001B3E72DE9FF4FD2
:100530001F468DB0D7E901464FF0FF382E204546C3
:100540004FF000090B90B9696D1C0E988847396A05
:10055000824688470028F6D1BAF1FF3F0AD024F43A
:10056000D064002E11DDBAF12B0F08D0BAF12D0F97
:100570000BD102E0404611B08DE744F48064B969C4
:100580006D1C0E9888478246761E6946600501D527
:100590002D2000E02B208DF8000001F1010B0DF162
:1005A000200809E0B9696D1C0E98884782460F98AB
:1005B00044F40074761E0560002E02DDBAF1300F9F
:1005C000F0D00B998A453ED144F0800406E00F99A3
:1005D000681CA9F1010944F400740860B9696D1C34
:1005E000761E0E98884782463028F0D02BE00B9973
:1005F0008A4505D1200603D444F08004761E18E015
:10060000504603F0BAF908B30DF11302761EAAF1B1
:10061000300044F40074934506D20BF8010B200619
:1006200007D5A9F1010003E0200602D409F1010079
:100630008146A00502D50F99681C0860B9696D1C38
:100640000E9888478246002ED1DC53E0002E51DD03
:10065000BAF1650F02D0BAF1450F4BD1A00549D5CB
:10066000B9696D1C24F44074761E0E988847824642
:10067000002E0CDD2B2804D0BAF12D0F07D144F445
:100680008074B9696D1C0E9888478246761EE00515
:1006900001D52D2100E02B2108F8011BCDF82C807D
:1006A00021E00DF12901761E44F4007488450CD236
:1006B000AAF1300010F0FF0088F8000002D10B9979
:1006C000884509D908F1010806E0E00501D524486C
:1006D00001E042F20F708146B9696D1C0E9888479F
:1006E00082460F980560002E04DD504603F045F960
:1006F0000028D6D1F9690E988847FF208BF80000B2
:1007000088F800000020069007904B466A4608A92A
:1007100006A8FFF777FEA00502D46FF001002AE7D4
:1007200014F0240F0AD0E00714D1DDE9061238686E
:10073000031D3B600068C0E900120BE0DDE9060123
:1007400000F0ACFA0146E00704D13868021D3A60B7
:100750000068016028460EE7000014400000F03FEA
:10076000F1D8FFFF30BCBDE8C08F2DE9FE4F8046B9
:1007700081EA0300C00F0C46009021F0004123F0F5
:100780000045B8EB0200A94105D2404621469046FB
:100790001C460B46024623F00040104347D0270D6D
:1007A000C7F30A00C3F30A510290401A019040288F
:1007B0006BDAC3F3130040F4801B0098924620B11B
:1007C0000023D2EB030A63EB0B0B01985946C0F1EF
:1007D0004002504600F00AF906460D46504659467A
:1007E000019A00F022F910EB08006141002487EA29
:1007F000115284EAE7731A4340D0009A62B3019A17
:10080000012A4FEA075215DC001B61EB02014FF091
:10081000004202EA0752CDE90042001C41F5801176
:1008200032462B4600F03BF903B000F045B8404695
:100830002146F9E7001B61EB0201001C41F5801322
:1008400000185B412018A2F5001747EB030140EAAE
:10085000D570B6196D4111E06D084FEA360645EACC
:10086000C0754FEA0752001B61EB0201001C41F505
:10087000801149084FEA30000019514132462B4699
:1008800003B000F01CB800F0FBB800980122400053
:100890000023D0EB020263EBE073009821464FEA9D
:1008A000E074B8EB000061EB0401E9E783F000437A
:1008B0005BE781F0004158E730BCBDE8C08F30BC39
:1008C000BDE8C04FFFF7DFBF2DE9F04D81EA03041B
:1008D00004F0004B21F0004514464FF0000A23F0CD
:1008E000004150EA050220D054EA01021DD0C5F3B0
:1008F0000A570246C5F31303C1F31300C1F30A56A6
:1009000040F4801543F48013A7EB0608101BD6466D
:1009100008F2FD3873EB050002D308F1010801E08D
:1009200092185B41B8F1000F03DA00200146BDE8E0
:10093000F08D00204FF48011064684460EE0171B10
:1009400073EB050705D3121B63EB050306434CEA63
:10095000010C49084FEA300092185B4150EA010748
:10096000EDD152EA030012D082EA040083EA0501C5
:10097000084305D0101BAB4106D20122002306E03C
:1009800000224FF0004302E06FF0010253101AEB17
:1009900006004CEB085110EB0A0041EB0B01BDE8DF
:1009A000F04D00F06DB80EB540F2334102910021D8
:1009B000CDE900110A460B4600F071F803B000BD06
:1009C00030B50B46014600202022012409E021FA1F
:1009D00002F59D4205D303FA02F5491B04FA02F51C
:1009E0002844151EA2F10102F1DC30BD202A04DBEF
:1009F000203A00FA02F1002070479140C2F1200332
:100A000020FA03F3194390407047202A04DB203A70
:100A100021FA02F00021704721FA02F3D040C2F11E
:100A200020029140084319467047202A06DBCB1765
:100A3000203A41FA02F043EAE07306E041FA02F399
:100A4000D040C2F1200291400843194670473A282D
:100A500000D2303820F02002412A01D3A2F1370021
:100A6000884201D34FF0FF3070470000024B936182
:100A7000024BD36100F05CB9D9330008150D0008B2
:100A800010B5141E73F1000408DA401C41F1000196
:100A900092185B411A4301D120F0010010BD2DE9ED
:100AA000F04D92469B4611B1B1FA81F202E0B0FAE4
:100AB00080F220329046FFF799FF04460F4640EA45
:100AC0000A0041EA0B0153465A46084313D0114627
:100AD00053EA010019D0C8F140025046FFF795FFD4
:100AE00005460E46504659464246FFF77FFF0843EB
:100AF00005D0012004E020463946BDE8F08D0020F5
:100B0000054346EAE0762C4337430A986305E40A36
:100B1000A0EB08000022FD0A44EA47540A3002D53F
:100B200000200146E9E7010510196941DDE90845A2
:100B300000196941BDE8F04DA2E72DE9FE4F81EAB9
:100B4000030404F0004421F0004100944FF0000B36
:100B500023F0004350EA01045ED052EA03045BD064
:100B6000C3F30A54C1F30A552C44A4F2F33401949C
:100B7000A0FB0254C1F3130141F48011C3F313032A
:100B800043F4801301FB024400FB034E840A970ADE
:100B900044EA815447EA8357A4FB076802958D0A0B
:100BA00005FB07854FEA932C04FB0C542705029D97
:100BB0004FEA065847EA1637B5EB08056EEB070C07
:100BC000870E920E47EA811742EA8312A7FB0201C1
:100BD000B6EB0B0164EB00042B0D43EA0C335E18FB
:100BE00044EB1C50DA465146E7FB0201C5F31304FF
:100BF0004FEA0B3343EA14534FEA0432019C43EAB1
:100C00000603A4F10C040294009CCDE900B4FFF7A4
:100C100046FF03B000F003B800200146F9E730BCFE
:100C2000BDE8C08F0EB540F2334202920022CDE9FA
:100C300000221346FFF733FF03B000BDC1F30A5291
:100C4000C1F3130140F2FF3341F480119A4202DAFA
:100C500000200146704740F233439A42A2F23342E9
:100C600002DC5242FFF7D1BEFFF7C0BE30B5041E12
:100C700071F1000404DB4FF00044404264EB0101D9
:100C8000141E73F1000405DB1C464FF00043524272
:100C900063EB0403994208BF904230BD01F000436A
:100CA00030B421F0004150EA010206D00A0DA2F54D
:100CB0006072C1F31301002A02DC30BC00207047CF
:100CC000440F44EAC104C100E01830BC00EBC2503C
:100CD00000F03CB8064C074D06E0E06840F0010328
:100CE00094E8070098471034AC42F6D3FFF752FA65
:100CF00050C9000870C90008094910B508784C1C93
:100D000018B1401E0870205C10BD00210720ABBE4A
:100D1000207010BD02490878421C0A70704700001C
:100D200010000020026811441378016018467047D3
:100D3000D1600449516104491162002111611146D9
:100D400000F040B8250D0008BB0D00080029A8BF21
:100D50007047401C490008BF20F00100704710B4E4
:100D6000B0FA80FC00FA0CF050EA010404BF10BC99
:100D7000704749B1CCF1200421FA04F411FA0CF1C6
:100D800018BF012121430843A3EB0C01CB1D4FEAFF
:100D900000614FEA102042BF002010BC704700EBFA
:100DA000C35010440029A4BF10BC7047401C490028
:100DB00008BF20F0010010BC7047C0B24FF4F051E2
:100DC00000F09AB92DE9F34F8BB04FF0000801F114
:100DD0000C000C464FF0010B46460DF1080A01903D
:100DE0006269012101989047051E2DD0252D2CD038
:100DF000216A8847C0B16269012101989047216A40
:100E000088470028F7D1411E62690198904700E0A9
:100E1000761CA1690B988847216A88470028F7D17A
:100E2000E1690B988847DBE7A1690B98884707467B
:100E3000A84201D1761CD3E7E1690B9888477F1C53
:100E400002D1B8F1000F6FD046E1002762693D463C
:100E50003946019890472A2804D1626901210198F6
:100E600090470125DFF8849262690121019890473B
:100E7000A0F130010A290AD24F45E5DC07EB8701D2
:100E800000EB4107303FDFD445F01005ECE7E90601
:100E900001D46FF000476C280AD04C2814D0682881
:100EA00015D06A280DD074281CD07A281AD01DE0DD
:100EB00062690121019890476C2802D045F0040531
:100EC00014E045F002050DE045F020050AE06269F6
:100ED000012101989047682802D045F0080505E0F7
:100EE00045F400656269012101989047C4E9015702
:100EF00065283DD019DC58287AD00CDC452837D03D
:100F000004DC252826D0412831D131E046282FD0D5
:100F100047282CD12CE05B2877D0612828D0632883
:100F20007CD0642823D15AE0D0E06F2848D008DC78
:100F300066281DD067281BD0692821D06E2816D1BD
:100F400027E0702845D0732868D0752847D07828C6
:100F50000DD14DE0A1690B988847054625283FF43F
:100F600069AFE1690B9888476D1C3FF46AAFB3E045
:100F700023466A466FF001000B99FFF7D7FA9EE00F
:100F800045F040006060A80723464FF0000236D4C9
:100F90003EE0E8077FF447AF2068011D216000684C
:100FA000290501D506701BE7290701D5068017E73B
:100FB000A90703D5F117C0E9006111E706600FE743
:100FC00045F040006060A80723464FF0080216D4A1
:100FD0001EE040F60E0125EA0100606016E045F0D3
:100FE00040006060A80723464FF00A0207D40FE0D4
:100FF00045F040006060A80708D5234610226FF036
:1010000001000B99AFF3008059E007E0234610225E
:101010006FF001000B99FFF74BF950E04FF000091A
:101020004F464B46632802D05B2806D040E0E806D6
:1010300001D40120A06001273AE0626901210198F2
:1010400090475E2805D14FF0010962694946019831
:101050009047216939B900210A46534643F82120B7
:10106000491C0829FADBB0B3216969B9C11700EB43
:10107000D16253110AEB830122F01F02821A012070
:101080000B68904003430B6062690121019890470F
:101090005D28E8D1B9F1000F09D00020514651F880
:1010A0002020D24341F82020401C0828F7DB02AB67
:1010B000224600976FF001000B99AFF300800028E3
:1010C0000CDA401C08D1BBF1000F05D04FF0FF3007
:1010D0000DB000F00DB8FFE74046F9E7E90701D190
:1010E00008F1010806444FF0000B79E6CCCCCC0C9B
:1010F00030BCBDE8C08F00007F2801D9002208E085
:10110000064A02EB5002C007127800D1120902F021
:101110000F0201209040084070470000185C000852
:1011200070B58C1810F8015B15F0070301D110F8A9
:10113000013B2A1106D110F8012B03E010F8016BD6
:1011400001F8016B5B1EF9D12B0705D40023521E59
:101150000DD401F8013BFAE710F8013BCB1A921CC1
:1011600003E013F8015B01F8015B521EF9D5A142BF
:10117000D8D3002070BD0000FEE7000070470000DB
:10118000EFF3108072B600BFFEE70000B0B5002399
:10119000C7F6FF73194205D04FF0010C4FF0010E56
:1011A00007E000BF11F47F4F26D04FF0010E4FF043
:1011B000000C01234FEAF204032C06D8DFE804F008
:1011C0001202080EBCF1000F0CD00120B0BD00BF10
:1011D000BEF1000F1CBF0120B0BD03E0002B1CBFFF
:1011E0000120B0BD00684161816821F01801114300
:1011F00081600020B0BD00BF0B0607D44B06CBD0EA
:101200004FF0000C4FF0000E0023D3E701234FF006
:10121000000C4FF0000ECDE710B5A8B10446407F9A
:1012200020B900202077204600F032F802206077B5
:10123000207958B1D4E902122046FFF7A7FF002811
:101240001CBF012010BD0BE0012010BD206841F63D
:10125000B751C0F2C1414161816821F0180181603C
:101260006079002814BF20694FF0FF302168D4E96D
:1012700005230861886820F0600010438860886852
:1012800020F080001843886001206077002010BDA6
:1012900081B0006843F20001C4F20201884201D02B
:1012A00001B0704741F24800C4F20200016841F405
:1012B00080510160006800F480500090009801B0F7
:1012C00070470000B0B5044600F010F9054640F242
:1012D0008400C2F200000078611C18BF044400BF03
:1012E00000F004F9401BA042FAD3B0BD2DE9F04F45
:1012F00085B040F600028E46C4F600029042DEF849
:1013000000204FF00701039008BF0221002A00913E
:1013100000F0E0800024012600274FF00008CDF8FF
:1013200008E04CE040F20041C4F60001009D884214
:1013300008BF012504F00C000F2181402CEA0101B7
:1013400005FA00F0084340F2004543F82200C4F2D9
:101350000105A868DEF8041040EA090240F20C4CCE
:10136000CB0258BF20EA0902AA60C4F2010CDCF8E3
:1013700000008B0240EA090258BF20EA0902CCF8BB
:10138000002068688B0340EA090258BF20EA09027E
:101390006A602868C90340EA090258BF20EA0902C6
:1013A0002A60DEF8002008F1010832FA06F007F1A1
:1013B000020706F1010604F1040400F08B80A6F197
:1013C000010A012000FA0AF312EA0309E9D0DEF863
:1013D00004B00BF0030CACF10102012A1ED80398F3
:1013E0004FEA480281680192032202FA07F5029A45
:1013F000A943D2F80CE0ED430EFA07F21143DDF8F1
:1014000008E081604168CBF30012994303460198DC
:1014100002FA0AF2114359600CE000BF0320B84001
:10142000039BC543BCF1030F384603D138464FF048
:10143000030C26E0D968DEF80820294082401143D9
:10144000BCF1020FD9601CD102466FF0030000EA24
:101450005A01194404F01C030F20D1F820C000FAEF
:1014600003FE1046029A2CEA0E0C1269DDF808E021
:101470009A4042EA0C02039B0A62DEF804B00BF0C9
:10148000030C19680CFA00F0294008431BF4403F94
:1014900018603FF486AF41F26001C4F202010868AF
:1014A0004FEA9A0240F001000860086800F001006D
:1014B0000490049840F20040C4F20100A0F57E734D
:1014C00053F822C00398B0F1904F7FF42BAF002562
:1014D00030E700BF05B000F000B830BCBDE8C08FF9
:1014E0001823002A08BF2823C150704741F6C06066
:1014F000C2F200000068704740F2840041F6C0610B
:10150000C2F20000C2F2000100780A6810440860CC
:101510007047000080B5032000F078F8002000F04C
:1015200009F800281CBF012080BD00F029F8002028
:1015300080BD000070B540F28406C2F2000631782A
:10154000E1B1044640F2D830C2F200004FF47A72A2
:101550000068B2FBF1F1B0FBF1F000F0ADFF0F2C31
:101560004FF0010508D838B94FF0FF30214600226E
:10157000002500F01FF87460284670BD012070BD82
:1015800082B041F25800C4F20200816841F00101CA
:101590008160816801F0010101910199016841F0C8
:1015A00080510160006800F080500090009802B007
:1015B0007047000010B54EF60C5CCEF2000CDCF863
:1015C0000030C3F3022E8EF00704042C28BF04243D
:1015D000BEF103034FF0FF3E0EFA04F438BF0023C0
:1015E000A14399400EFA03F39A43114300F00F020E
:1015F000043A624409010C3200F16043B0F1FF3F4C
:10160000C8BF03F56442117010BD00004EF60C51C6
:10161000CEF200010A684FF6FF031A4060F30A2277
:1016200042F0806040F0FD700860704747F20001B2
:10163000C4F200010A68B0F5007F02F4C06031D145
:10164000B0F5007F2CD00868012262F34A200860C0
:1016500040F2D830C2F200000068322250434DF60A
:101660008362C4F21B32A0FB0202900C4A6952054D
:1016700011D5421C0FD04A6952050CD558B14A69A0
:10168000520508D5012806D04A69520503D502281B
:10169000A0F10400EAD14869400544BF0320704727
:1016A00000207047B0F5806FFAD00868022262F31C
:1016B0004A2008600020704747F20000C4F2000092
:1016C000006800F4C06070472DE9F04381B0044623
:1016D000407841F288070007C4F2020721D5E06B89
:1016E00080B1B0F5400F15D0B0F5000F40F0168175
:1016F00057F87C0C40F4803047F87C0C4FF4000025
:101700000AE000BF201D002101F0A4F9814650B974
:10171000E06B01E04FF44000396821F440010843D8
:1017200038604FF00009A078800751D557F8300C89
:1017300010F080580BD157F8300C40F0805047F82B
:10174000300C57F8300C00F080500090009847F2B1
:101750000005C4F20005286840F480702860FFF797
:10176000C5FE06462868C00508D4FFF7BFFE801BEB
:101770000228F7D94FF0030921E000BFB9F1000FAB
:101780001DD1B86810F4407011D0216D88420BD083
:10179000B868B96820F4407041F48031B960B96824
:1017A00021F48031B960B860C00740F0BF80B868EC
:1017B000216D20F4407008434FF00009B860B8F183
:1017C000000F05D157F8300C20F0805047F8300C4E
:1017D0002168C8070ED1880714D488061AD4880552
:1017E00020D4480526D448062CD4C80532D4880411
:1017F00038D449E03868226A20F00300104338608A
:101800008807EAD53868626A20F00C001043386017
:101810008806E4D53868A26A20F440601043386036
:101820008805DED53868626B20F4402010433860AC
:101830004805D8D53868A26B20F4401010433860B2
:101840004806D2D53868E26A20F440501043386028
:10185000C805CCD53868226B20F44030104338607E
:10186000880411D53A68206C22F040620243B0F13E
:10187000806F3A601ED0B0F1006F05D157F87C0C34
:1018800040F4801047F87C0C480327D53A68606C18
:1018900022F040620243B0F1806F3A6016D0B0F19E
:1018A000006F1BD157F87C0C40F4801047F87C0C7B
:1018B00014E000BF201D012101F0CCF821680028B0
:1018C00018BF81464803E1D408E000BF201D012174
:1018D00001F0C0F82168002818BF8146480410D5DF
:1018E0003868A26C20F040501043B2F1805F38603D
:1018F00007D1201D022101F0ADF82168002818BF92
:101900008146080405D53868E16C20F08040084322
:101910003860484601B0BDE8F08300BF4FF00109D0
:10192000A07880073FF502AF52E700BFFFF7DEFD6A
:10193000064641F288354FF0030900BFB8688007BA
:101940003FF535AFFFF7D2FD801BA842F6D936E749
:101950002DE9F04381B000286BD042F20008C4F2B8
:1019600002080446D8F800000D4600F0070088423F
:101970000CD2D8F8000020F007002843C8F8000077
:10198000D8F8000000F00700A84252D1206841F2C8
:10199000080910F00201C4F202090DD0A268D9F8BA
:1019A000003003F0F0039A4206D9D9F8003023F052
:1019B000F0031A43C9F80020C2072DD169B1A1680C
:1019C000D9F8002002F0F002914206D2D9F80020A6
:1019D00022F0F0021143C9F80010D8F8001001F00D
:1019E0000701A9420CD9D8F8001021F007012943BA
:1019F000C8F80010D8F8001001F00701A94218D16A
:101A000041071BD4000723D4D9F80000D9F80410EB
:101A100010F00C002CD131E0606800285ED0022864
:101A200000F07E80032840F0818059F8081C89016D
:101A300058D4012001B0BDE8F08300BFD9F80010F0
:101A4000E26821F4E0611143C9F800100007DBD51A
:101A5000D9F80000216920F4605040EAC100C9F8BB
:101A60000000D9F80000D9F8041010F00C0005D0DF
:101A70000C2829D101F00301012925D159F8081CAE
:101A8000090703D4D9F88C10090A02E059F8081C98
:101A9000090945F6804201F00F01C0F6000252F834
:101AA000211000280A4618BF00220C2871D1D9F84D
:101AB000040000F00300022846D0032804BF41F2CE
:101AC0000021C0F27A0143E0042857D008285BD1F6
:101AD00041F20022C0F27A025BE000BF59F8081C14
:101AE0008907A6D5D9F8001021F003010843C9F8E9
:101AF0000000FFF7FBFC064641F28837D9F80000EA
:101B0000616800F00C00B0EB810F15D0FFF7EEFC20
:101B1000801BB842F2D9032001B0BDE8F08300BFBA
:101B200059F8081C89037FF584AFDBE759F8081CD6
:101B300049057FF57EAFD5E7206800F00201002956
:101B40007FF43DAF49E700BF42F20041C0F2F4012B
:101B5000D9F80400D9F80420C0F30210C2F3062219
:101B60005143D9F804200130B1FBF0F0C2F34161D8
:101B7000022202EB4101B0FBF1F20AE042F2004224
:101B8000C0F2F40205E000BF002200210C283FF45F
:101B90008EAFD9F8000045F66841C0F30310C0F6D7
:101BA0000001085C00F01F0022FA00F140F28800FA
:101BB000C2F2000040F2D8320068C2F200021160A6
:101BC00001B0BDE8F043FFF7B5BC000040F2D830EB
:101BD00041F20801C2F20000C4F202010068096883
:101BE00045F67842C1F30221C0F60002515C01F0D3
:101BF0001F01C8407047000040F2D83041F2080190
:101C0000C2F20000C4F202010068096845F6784299
:101C1000C1F3C221C0F60002515C01F01F01C840AF
:101C20007047000041F20C01C4F2020151F8040CAB
:101C300010F00C02086805D00C2A29D100F003002E
:101C4000012825D151F80C0C000703D4D1F88800E5
:101C5000000A02E051F80C0C000945F6804300F040
:101C60000F00C0F6000353F82030002A184618BFB2
:101C700000200C2A18BF7047086800F003000228F3
:101C800010D0032804BF41F20023C0F27A030DE014
:101C9000042A1FD0082A23D141F20020C0F27A0082
:101CA000704700BF42F20043C0F2F40308680A68BC
:101CB000C0F30210C2F30622096801305A43B2FB96
:101CC000F0F0C1F34161022202EB4101B0FBF1F0FF
:101CD000704700BF42F20040C0F2F400704700BFFE
:101CE00000200023C5E700002DE9F04383B0002861
:101CF00000F0388341F200060446C4F20206B068E0
:101D0000F168227800F00C09D00601F003081DD418
:101D10002078C00700F08180B9F1080F76D0B9F1C2
:101D20000C0F08BFB8F1030F70D06068B0F5803FAA
:101D300007D0B0F5A02F40F04B82306840F48020EF
:101D40003060306840F4803030604CE2B9F1000F10
:101D50001ED0B9F10C0F08BFB8F1010F18D0A1695E
:101D60003068002900F0968140F001003060FFF7F4
:101D7000BDFB05463068800700F19E81FFF7B6FB8A
:101D8000401B02284FF00300F4D903B0BDE8F083F4
:101D90003068800703D5A069002800F0E382256A37
:101DA0003068000700F13E81D6F89400000900F089
:101DB000F000854200F23C813068B9F1000F40F03C
:101DC00008003060306820F0F00040EA0500306024
:101DD0007068E16920F47F4040EA0120706040F0C3
:101DE000AF82B06DC00000F14B82B06D40F080500A
:101DF000B065B06D00F0805002900298FFF75CFC77
:101E0000B16D21F08051B1653CE200BF30688003C4
:101E100003D56068002800F0A582207880072DD5C2
:101E2000B9F1040F1CD0B9F10C0F08BFB8F1020FC3
:101E300016D0E1683068002900F0E48140F4807039
:101E40003060FFF753FB0546306840050FD4FFF7BD
:101E50004DFB401B02284FF00300F5D995E700BF6A
:101E60003068400503D5E068002800F07B82706888
:101E7000216920F0F85040EA016070602078000786
:101E800060D42078400775D42078800600F1AE80B9
:101E9000A06A002800F00C83022840F01F81F0683F
:101EA000E16A00F003028A4240F03081226B6FF059
:101EB0000F0300F0700103EB0212914240F0268103
:101EC000616B00F4FE42B2EB012F40F01F81A16B69
:101ED00000F07842B2EBC16F40F01881E26B002352
:101EE000CFF6E07303EB025200F4C0016FF314026B
:101EF000914240F00B81216C4FF07E4202EB016178
:101F000000F0C06001F07E41884240F0FF80306800
:101F1000800100F1CD82306840F080703060F06860
:101F200040F08070F060FFF7E1FA0446306880010D
:101F300000F1BE82FFF7DAFA001B02284FF003001F
:101F4000F4D922E76169D6F89400002900F08C806A
:101F500040F00100C6F89400FFF7C8FA054600BF3C
:101F6000D6F8940080078CD4FFF7C0FA401B0228F3
:101F7000F6D929E1B06D10F0805808D1B06D40F06D
:101F80008050B065B06D00F080500090009847F22E
:101F90000007C4F200073868C00513D4386840F45D
:101FA00080703860FFF7A2FA054600BF3868C005A8
:101FB00008D4FFF79BFA401B02284FF00300F5D925
:101FC000E3E600BFA068012808D0052840F0DE80C5
:101FD000D6F8900040F00400C6F89000D6F89000C3
:101FE00040F00100C6F89000DFE000BF616AD6F85B
:101FF0009800002900F0B48040F00100C6F8980075
:10200000FFF774FA054600BFD6F8980080073FF541
:102010003FAFFFF76BFA401B02284FF00300F3D9E4
:10202000B3E600BF306800F0F00085427FF6C4AE32
:10203000B06DC00000F18680B06D40F08050B0659A
:10204000B06D00F0805001900198FFF735FBB16D45
:1020500021F08051B165B0F5007F79D0802D40F23C
:10206000E3800320EBE000BF20F00100C6F89400FD
:10207000FFF73CFA054600BFD6F8940080077FF5CD
:1020800000AFFFF733FA401B02284FF00300F3D9EB
:102090007BE600BF20F001003060FFF727FA05461D
:1020A000306880077FF534AEFFF720FA401B022826
:1020B0004FF00300F4D968E6306840F00800306063
:1020C0003068D4E9072120F0F000084330607068E0
:1020D00020F47F4040EA0220706019E6B9F10C0F4D
:1020E00000F04081306820F080703060FFF7FEF92A
:1020F000044600BF3068800140F1EE80FFF7F6F93A
:10210000001B02284FF00300F4D93EE6B9F10C0F92
:1021100000F028813068400100F12481306820F00F
:1021200080703060FFF7E2F905463068800140F1C9
:102130008181FFF7DBF9401B02284FF00300F4D93F
:1021400023E600BFFFF7B8FAB0F5007F7FF486AF53
:10215000812D73D30120A02D88BF02206FE000BF26
:1021600020F00100C6F89800FFF7C0F9054600BF4F
:10217000D6F8980080077FF58BAEFFF7B7F9401BC4
:1021800002284FF00300F3D9FFE500BFD6F8901006
:10219000002821F00101C6F89010D6F8901021F027
:1021A0000401C6F8901000F07B80FFF79FF9054608
:1021B00041F28837D6F89000800700F18380FFF75E
:1021C00095F9401BB842F5D9032003B0BDE8F08370
:1021D0003168002821F480313160316821F4802198
:1021E000316000F08580FFF781F905463068800393
:1021F0003FF513AEFFF77AF9401B64284FF0030058
:10220000F4D9C2E520F480703060FFF76FF905461D
:10221000306840057FF532AEFFF768F9401B0228B1
:102220004FF00300F4D9B0E5A5F17000B0FA80F0EA
:102230004009802D08BF022001E000BF002042F2CB
:102240000001C4F202010A6822F0070202440A6097
:10225000096801F00701814240F08480306840F055
:10226000080030603068D4E9072120F0F00008430E
:102270003060706820F47F4040EA022070605FE0C8
:10228000FFF71AFAB0F5007F06D1812D40D3012067
:10229000A02D88BF022045E0802D3BD9032041E0DE
:1022A000FFF724F9054641F28837D6F890008007F9
:1022B00008D5FFF71BF9401BB8424FF00300F4D9D3
:1022C00063E500BFB8F1000F7FF4DEADB06D20F024
:1022D0008050B065D8E500BFF0684FF6FC71CFF6CE
:1022E000EE610840F060002003B0BDE8F08300BF5D
:1022F000FFF7FCF80546306880037FF58EADFFF7E9
:10230000F5F8401B64284FF00300F4D93DE500BF09
:10231000002007E0A5F17000B0FA80F04009802DA0
:1023200008BF022042F20001C4F202010A6822F052
:10233000070202440A60096801F00701814211D1D5
:10234000B068F16810F00C0005D00C282AD101F01B
:102350000301012926D13168090707D4D6F8941062
:10236000090A05E0012003B0BDE8F08331680909DE
:1023700045F6804201F00F01C0F6000252F821102C
:1023800000280A4618BF00220C2837D1F06800F058
:102390000300022810D0032804BF41F20021C0F23C
:1023A0007A010DE004281FD0082823D141F2002231
:1023B000C0F27A0222E000BF42F20041C0F2F40112
:1023C000F068F268C0F30210C2F306225143F268CB
:1023D0000130B1FBF0F0C2F34161022202EB410196
:1023E000B0FBF1F20AE000BF42F20042C0F2F40298
:1023F00004E000BF002200210C28C7D0B06845F6D9
:102400006841C0F30310C0F60001085C00F01F0033
:1024100022FA00F140F28800C2F2000040F2D83205
:102420000068C2F200021160FFF784F800287FF410
:10243000ACAC6DE4F06848F28C01C0F29D1104F17F
:102440002C0700EA010C8ECF6FF00F00D4E90F5477
:1024500000EB02100022CFF6E07241EA0C0102EB21
:10246000055208436FF314024FF07E4540EA032003
:1024700005EB0465104305F07E4540EAC76028433C
:10248000F060306840F080703060F06840F080703C
:10249000F060FFF72BF804463068800108D4FFF79E
:1024A00025F8001B02284FF00300F5D96DE400BFAA
:1024B000002003B0BDE8F083411E0020B0EB116F97
:1024C0001CBF012070474EF21002CEF20002516094
:1024D0004EF62351CEF20001F0230B7007219060DD
:1024E00011607047B0B582B0A0B10446806F28B9C2
:1024F000002084F87400204600F056F82420A067DD
:102500002068016821F001010160204600F02EFCE6
:10251000012803D1012002B0B0BD00BF606A10B134
:10252000204600F0AFFB2068416821F490414160F3
:10253000816821F02A018160016841F00101016098
:102540000020C4F88000FEF7D1FF216805460A6824
:1025500012070CD56FF07E4C20464FF4001100227C
:102560002B46CDF800C000F00DFD78B92168086851
:1025700040070FD56FF07E4C20464FF480010022BB
:102580002B46CDF800C000F0FDFC18B1032002B0CE
:10259000B0BD00BF2020A067E0670020206684F85F
:1025A000740002B0B0BD0000F0B585B0006844F220
:1025B0000041C4F20001884202D005B0F0BD00BF66
:1025C00041F24C00C4F20200C1686C4641F4003193
:1025D000C160C168022501F40031009100990168D1
:1025E000002641F0010101600068032700F00100AE
:1025F0000090009804200090072004904FF0904035
:102600002146019502960397FEF770FE4FF40040B5
:102610008DE8E1004FF0904021460497FEF766FEFA
:1026200005B0F0BD2DE9F04381B00546C06F20280C
:102630000BD10E4600294FF001006AD01746002A40
:1026400067D095F87400012804D1022001B0BDE8DC
:10265000F08300BF012085F87400002022211C4671
:10266000C5F88000E9672866FEF740FFA5F85870B6
:10267000A5F85A70A9688046B1B1B1F1805F17D052
:10268000B1F5805F18D12869FF270028014618BFDF
:10269000314608BF40F2FF17A5F85C70002818BF4C
:1026A0000026B1460E460EE0286938B9FF2706E03D
:1026B000286918B13F2702E0002700E07F274FF08C
:1026C0000009A5F85C70002085F87400B5F85A0080
:1026D000E0B100BF2846202100224346009400F0CC
:1026E00051FCC8B92868002E808C00EA070012BF90
:1026F00006F8010B29F8020B0026B5F85A0001383C
:10270000A5F85A00B5F85A000028E3D12020E86760
:10271000002001B0BDE8F083032001B0BDE8F083E4
:102720002DE9F04381B00446806F20280BD10E467E
:1027300000294FF001005CD01746002A59D094F8C8
:102740007400012804D1022001B0BDE8F08300BF6D
:10275000012084F874004FF0000921201D46C4F8C0
:102760008090A067FEF7C2FEA4F85070A4F85270E3
:10277000A1680746B1F5805F08D1206900281CBF19
:1027800030464E46B046064602E000BF4FF0000815
:1027900084F8749009E000BF16F8010B21680885E1
:1027A000B4F852000138A4F85200B4F8520088B1CD
:1027B0002046802100223B46009500F0E3FB88B9CB
:1027C000002EE9D138F8020B21686FF35F200885ED
:1027D0000026E5E72046402100223B46009500F018
:1027E000D1FB18B1032001B0BDE8F0832020A06721
:1027F000002001B0BDE8F083FEE7000080B542F69E
:10280000004E0368C4F2010E0246704502D0B2F1D8
:10281000804F03D1486823F07003034343F6FF70F1
:10282000C4F2010044F2004C8242C4F2010C05DC07
:10283000B2F1804F0AD0724508D00BE0624505D056
:1028400044F20000C4F20100824203D1C86823F4BC
:1028500040730343136088687245D06208889062B1
:1028600018BF624508D108691063506940F0010142
:102870000020516180BD00BF44F20000C4F201009D
:102880008242F2D1EFE7000080B540F6882043F2A3
:102890000001C2F20000C4F2020101600021818047
:1028A000C0E9051101210162FEF7B6FC002808BF4E
:1028B00080BDBDE88040FEF763BC000070B586B007
:1028C000002541F24C000595C4F20200016840F277
:1028D000004441F0040101600168C4F6000401F005
:1028E0000401009100990168002241F0010101609A
:1028F0000168082601F0010100910099016841F08A
:10290000020101600068082100F0020000900098B8
:102910002046FEF7E5FD0120CDE9020501A920468C
:1029200001960495FEF7E2FC06B070BD10B586B0C6
:10293000002041F258010490CDE90200CDE90000E9
:10294000C4F202010A684FF0804442F001020A60BA
:1029500009684FF0805201F00101059105994EF68A
:102960000C51CEF2000109684EF20011CEF20001C6
:1029700081F81C030A600921ADF8001041F288318A
:102980000190CDE9021069464FF08040FFF736FF15
:1029900020684BF6F87240F0800020600820C4F2F6
:1029A00000000168CFF6FE721140016050F8041C6F
:1029B00021F0700140F8041C016821F080010160E1
:1029C00006B010BD80B540F6AC2044F20041C2F222
:1029D0000000C4F2000100234FF00C0C4FF4E13270
:1029E00080E80E00C0E90333C0E905C3C0E907333E
:1029F0004362FFF777FD002808BF80BDBDE8804037
:102A0000FEF7BEBB10B582B040F2407040F2806469
:102A1000C2F20000C2F20004019001A92046002287
:102A200000F0D0FB000601D002B010BD20680021EC
:102A300000F0B0FC216860600846002100F0BAFC9C
:102A4000A06002B010BD0000FEE70000FEE700003D
:102A500070470000F0B581B041F20007C4F20207F0
:102A6000FA680D469107044614D0F868216800F012
:102A7000030088424FF0010040F09F80002900F0E1
:102A80009C80F8686168C0F302100130884232D13E
:102A900034E000BF206803280CD0022816D001289B
:102AA00029D13968012211F0020182EA510116D1BF
:102AB00020E000BF3968890310D43968012211F47D
:102AC000802182EA91410AD114E000BF39680122D5
:102AD00011F4806182EA912101D10BE00021FA68B2
:102AE000636822F073026FF00F0606EB03131043C6
:102AF0001843F86011B1012001B0F0BD386820F032
:102B000080603860FEF7F2FC064600BF38680001BE
:102B100006D5FEF7EBFC801B0228F7D944E000BF86
:102B2000012D0DD0F5B9386948F2FF01C0F2FF71EF
:102B30000840D4E9021240EA012040EAC26022E0E3
:102B400048F2FF013869CFF6FF112269002301F135
:102B5000B461CFF6E0730840A16803EB02526FF353
:102B600014020DE0386948F2FF016269CFF6FF11E7
:102B70004FF07E430840A16803EB026202F07E4200
:102B800040EA012010433861386840F080603860C6
:102B9000FEF7ACFC054600BF3868000108D4FEF71C
:102BA000A5FC401B0228F7D9032001B0F0BD00BFEF
:102BB000A069396908433861002001B0F0BD000008
:102BC00070470000FEF798BCB0B5ACB01BAC201D40
:102BD0002421FDF744FB01A85421FDF740FB102000
:102BE00060211B900120239102212190CDE9251025
:102BF00027902820289007200025CDE9290120468C
:102C000022952B91FFF770F820B1EFF3108072B688
:102C1000FEE700BF0F2016900320CDE9170516A888
:102C20000421CDE91955FEF793FE28B1EFF310808A
:102C300072B600BFFEE700BF0220019000200A909C
:102C400001A8FEF741FD28B1EFF3108072B600BF76
:102C5000FEE700BF4FF40070FEF7E8FC20B1EFF391
:102C6000108072B6FEE700BF2CB0B0BD4EF68850A3
:102C7000CEF20000016841F470010160704700006D
:102C80007047000080B5416ACA070DD18A0716D483
:102C90004A071FD40A0728D4CA0631D48A063AD470
:102CA0004A0658D542E000BF0268D0F828C05368F1
:102CB00023F4003343EA0C0353608A07E8D5026823
:102CC000D0F82CC0536823F4803343EA0C035360DC
:102CD0004A07DFD50268D0F830C0536823F4802358
:102CE00043EA0C0353600A07D6D50268D0F834C013
:102CF000536823F4004343EA0C035360CA06CDD55E
:102D00000268D0F838C0936823F4805343EA0C0378
:102D100093608A06C4D50268D0F83CC0936823F457
:102D2000005343EA0C0393604A0614D50268D0F8B6
:102D300040C05368BCF5801F23F4801343EA0C03A2
:102D4000536008D1D2F804C0D0F844E02CF4C0039A
:102D500043EA0E035360090658BF80BD0168806CCA
:102D60004A6822F400221043486080BDB0B5054691
:102D70002A69D5E9021300680A436969D5F81CE09D
:102D80001143026846F6F314CEF6FF7441EA0E01D1
:102D9000224011430160416848F2000C21F4405187
:102DA00019434160AA69C4F2000C60451CBF296A3E
:102DB0000A43816821F43061114344F20042C4F2B5
:102DC0000002904281600FD0604515D043F60001AB
:102DD000C4F2010188424BD141F28801C4F20201E0
:102DE0000B6864A212E000BF41F28801C4F2020144
:102DF00009688B0806E000BF41F28801C4F20201B5
:102E000009688B0A45F6B042C0F6000203F00301E0
:102E100052F82130604542F20040C0F2F4002ED05A
:102E2000BEF5004F12D1082B4FF0010100F29D803A
:102E3000DFE803F0065C689B609B9B9B660000BF1D
:102E4000FEF7C4FE002840F05D8056E0082B4FF0EE
:102E5000010100F28A80DFE803F0056B77886F8854
:102E600088887500FEF7B2FE002840F06D8066E0AD
:102E70001023604542F20040C0F2F400D0D1082B8C
:102E80004FF0010100F27180DFE803F0066F126F6E
:102E90000A6F6F6F100000BFFEF798FE40B902E0A6
:102EA000FEF7C0FE20B900215FE000BF4FF40040F4
:102EB0006A6802EB420188424FF0010155D31303C7
:102EC000984252D8010E000210EB520041F100016D
:102ED0000023FDF777F94FF60052A0F54071C0F2DC
:102EE0000F0291423BD301213FE000BFFEF784FE79
:102EF00040B902E0FEF796FE20B9002135E000BFA0
:102F00004FF4004069684A0802EB4000B0FBF1F062
:102F10004FF6EF72A0F11001914207D84FF6F07111
:102F20000140C0F34200084419E000BF01211CE049
:102F3000FEF762FE40B902E0FEF774FE20B9002100
:102F400013E000BF4FF4004069684FF6EF7200EBEA
:102F50005100B0FBF1F0A0F11001914204D82968B2
:102F6000C860002101E000BF0121002208466A6616
:102F7000AA66B0BD010000000400000002000000CD
:102F8000080000002DE9F041044600681546C269BA
:102F90000E461140891BB1FA81F14909A94240F05E
:102FA000A080DDF81880B8F1000F29D018F10101D8
:102FB00040F08080C1693140891BB1FA81F1490933
:102FC000A94240F08E80C1693140891BB1FA81F17C
:102FD0004909A94240F08580C1693140891BB1FA95
:102FE00081F14909A9427CD1C1693140891BB1FAFB
:102FF00081F14909A942DDD00020BDE8F08100BF80
:10300000FEF774FA206850E8000F216820F4D070B1
:1030100041E80002BAB3206850E8000F216820F4AC
:10302000D07041E8000272B3206850E8000F2168B8
:1030300020F4D07041E800022AB3206850E8000F65
:10304000216820F4D07041E80002002ADAD11AE0A9
:10305000206850E8020F216820F0010041E80202D8
:10306000DAB1206850E8020F216820F0010041E841
:10307000020292B1206850E8020F216820F001009E
:1030800041E802024AB1206850E8020F216820F0AE
:10309000010041E80202002ADAD12020A06704F1F1
:1030A0007C0020210160002084F874000320BDE82A
:1030B000F08100BF1F4600BFFEF718FAC01B404555
:1030C000A0D820680168490744BFC1695FEA01517F
:1030D0000AD4C0693040801BB0FA80F04009A84291
:1030E000EAD00020BDE8F0814FF40061016200BF2A
:1030F00050E8000F216820F4D07041E80002C2B30C
:10310000206850E8000F216820F4D07041E80002E8
:103110007AB3206850E8000F216820F4D07041E8AD
:10312000000232B3206850E8000F216820F4D0700C
:1031300041E80002EAB12068DAE700BF206850E801
:10314000020F216820F0010041E80202DAB1206894
:1031500050E8020F216820F0010041E8020292B11C
:10316000206850E8020F216820F0010041E80202C7
:103170004AB1206850E8020F216820F0010041E8C0
:103180000202002ADAD12020A067E06704F1800063
:1031900087E70000FEE7000010B540F28064C2F24D
:1031A000000463685860A26820685160194600F006
:1031B00011F9012804BF002010BD206800F074F848
:1031C000000A10BD2DE9F04790B016468146052053
:1031D00040F24C420F4600250090C2F200024846E1
:1031E00000210123019501F0F3FE8246000603D081
:1031F000504610B0BDE8F0870DF10808404600F0D9
:1032000037F858B38FB1BDF8160070B108F10C044F
:10321000002500BF57F825202046294601F024FA52
:10322000BDF8160001358542F4D386B1BDF80E0015
:1032300068B108F10404002556F8252020462946E7
:1032400001F012FABDF80E0001358542F4D3D9F829
:10325000000002A900F02AF80028C9D1D9F800001E
:1032600001F03EFF8246504610B0BDE8F0870000F6
:10327000002804BF0020704780B584B045F658414F
:10328000C0F60001D1E90012039245F66042C0F693
:103290000002D2E900230291CDE90023694602AA87
:1032A00001F020FE04B080BD01F01ABF2DE9F0410D
:1032B00082B00F46044601F021FF064600284FF079
:1032C000000064D00090684601213A4601F044FEB7
:1032D00040F214058046C2F20005A8B340F28C000B
:1032E000C2F200000168026941F08041016000996A
:1032F00042F08042026101F14402C0E90211C0E9DA
:10330000062228692A6A01F14803D5F860C042F014
:103310008042C5E90A3340F080402B6D286101F1FD
:1033200050002A6201F5C872C5E906004CF08040E1
:10333000AA66EA6643F0804201F50C712A65C5E988
:103340001611286605E000BF30463021122201F038
:10335000ABFF0020019001A801213A4601F0E6FDF3
:10336000074648B1019800F52A71C5E91200C5E980
:103370000E11C5E9020004E030463021132201F0AD
:1033800093FF204608EA070501F041FF284002B0FC
:10339000BDE8F081002818BF01F0F2BD40F24C40BA
:1033A00040F20012C2F20000CAF2C012026001F044
:1033B000E7BD0000002818BF01F07CBF40F24C4080
:1033C00040F20012C2F20000CAF2C012026001F024
:1033D00071BF000001F03EBF80B582B040F6AC2066
:1033E000C2F200000DF1070101224FF6FF73FFF753
:1033F00019F99DF8070002B080BD000080B582B0C9
:10340000019040F6AC20C2F2000001A901224FF663
:10341000FF73FFF785F9019802B080BD000000003E
:1034200084B04EF2100B0020CEF2000B0190FEF79C
:1034300071F8FFF7C9FBFFF741FAFFF725FAFFF72D
:10344000C1FAFFF773FAFFF7DDFA40F63030C2F247
:1034500000009FED4B8B04384DA602AF009000BFDB
:1034600049A000F0D9F8009D40F2E24430463946C8
:10347000FCF70EFF0298013C45F8040FF6D101203D
:10348000FDF720FFDBF80000FEF730F8DBF8041052
:10349000DBF808204C1CA11A0391DBF80010C903CB
:1034A00005D5FEF723F8DBF80810611A039103999C
:1034B0004FF47A725143B1FBF4F100FB0210FDF7B7
:1034C00072FA8046894640F6303041F6B861C2F261
:1034D0000000C2F20001FFF75FFEDBF80000FEF71C
:1034E00005F8DBF80410DBF808204C1CA11A039146
:1034F000DBF80010C90301D4824606E0FDF7F6FFB1
:10350000DBF808108246601A0390039D21A000F0AA
:1035100083F80120FDF7D6FE1FA001A9FCF7B8FE35
:103520000198C8289CD14FF47A7105FB01F0B0FBDB
:10353000F4F00AFB0100FDF736FA41F6B862C2F278
:10354000000292ED009A92ED01AA42464B46FDF729
:10355000ADF953EC182BFDF7B7F90246B4EE4A9AD1
:1035600010A00EA3F1EE10FAC8BF18460B4600F0EB
:1035700053F81E20FDF7A6FE72E700BF00BF00BF94
:103580000000000080842E41626567696E000000C3
:10359000256600006F6B000025640000302C252E8E
:1035A00036660000312C252E36660000144810B512
:1035B000016821F00101016000F0ACF811490968CF
:1035C000114BC1F30221114A012404290BD01049E7
:1035D0000C600C68002CFCD10D4908390B6009689F
:1035E00091420AD0FEE70B498C608C68002CFCD11C
:1035F0000B600968914200D0FEE700F0F8F810BDBA
:10360000002000E0002004E0C2A507F4CDB5E8B535
:10361000084C0258003002400FB4054B10B503A906
:10362000044A029800F0C8FB10BC5DF814FB0000CF
:10363000FD3300080400002030B528B1144C031FEE
:10364000002021680A4605E0084630BD9A4203D8AA
:1036500010465268002AF9D1002800D041680BD0EA
:103660000468A3EB0005A54204D11B681C44034673
:10367000046002E0436000E023603AB11C68D51AA0
:10368000A54203D115682C441C6052685A6030BDB5
:10369000080000202DE9F04782460F4C10480D4EDF
:1036A0000E4F001B4FF0000820F007054FF00109F6
:1036B00000221146504602F0A5F9002802D13068D8
:1036C00010B10020BDE8F0873C60C4E90058C6F89E
:1036D0000090EDE70C000020CC1E00200800002028
:1036E000C826002002E008C8121F08C1002AFAD12B
:1036F00070477047002001E001C1121F002AFBD172
:10370000704710B54169044688472069A04200D13E
:10371000002010BD012070472DE9F04F002799B01F
:10372000894604463E46B84646E0A068C6EBC60257
:10373000416801EB82010E91806810A900EBC60A76
:1037400028480D91AA68406A120A62F31F2001906E
:103750001C2105A8D5F80CB0FCF781FDA86900680C
:1037600000F0EEFE0590A869806806905FEA0A0006
:1037700008D0C0F800802968416029B1498819B192
:10378000012102E0404603E00021016001B9002070
:103790000790A86901991C224068CDE90A1B09908D
:1037A00005A90D98FCF742FD1C2210A90E98FCF704
:1037B0003DFD7F1CBFB2761C0CB1208800E00020CC
:1037C000B04205D9606818B150F82650002DACD130
:1037D0001FB1A0684168C9F8001019B0384600F060
:1037E00003B80000AC5B000830BCBDE8C08F704778
:1037F0002DE9FF5F82B00021DDE90430020DDDF824
:1038000040B0034318D044F61050A2F2FF324243B6
:103810001514119801281FD0A5EB0B00401C5FEA7E
:10382000000A4FF000064E4FDFF83891B046504680
:1038300015D5CAF1000413E0119801244AA3012808
:1038400001D16FEA0B010298119AC0E90031C0E979
:10385000024206B000F08EB8CBF10000DFE704466C
:103860000021404A491842EB0450CDE9001012E013
:10387000E00707D032463B4640464946FDF75DF932
:103880008046894632463B4610461946FDF755F9B3
:1038900006460F466410002CEAD1DDE90401DDE99B
:1038A0000023BAF1000F06DAFDF747F942464B460E
:1038B000FDF743F905E0FDF707F842464B46FDF7F3
:1038C00003F804460E460022284BFDF7CFF903D833
:1038D0004FF0FF30014607E00022254B20463146DD
:1038E000FCF743FFFDF7AAF9102409E0002C0ADBDE
:1038F0000A220023FCF766FC039B30321A55641E33
:1039000050EA0102F2D1641C039AC4F11103144479
:10391000119A012A03D0012208430DD10AE008437D
:1039200004D000204FF0110B119072E7A3EB0B05B0
:103930006D1E0DE05B4504DD4FF0000205F1010551
:1039400004E003DA4FF00002A5F10105002AECD0F3
:1039500002981199C0E90231C0E9004579E70000F9
:10396000000014400000F03F300000000000F04371
:103970000000E03F30BCBDE8C09F30380A2801D2CB
:10398000012070470020704770B505460C464888F6
:103990006988884202D9AAB1002070BD92B1002680
:1039A0000CE000BF6168C6EBC6006A6801EB8001ED
:1039B00002EB80001C22FCF739FC761C6088B042C8
:1039C000F0D801E06068686060886880208828809E
:1039D000012070BD30B500B3F9B1F2B15268E2B167
:1039E0000F4C1368A34203D00260012913D014E0E6
:1039F0000023121D07E000BF52F82350A54204D057
:103A000040F823505B1C8B42F6D38B4205D152F811
:103A10002300A04201D1012030BD002030BD0000B4
:103A2000DECAFAA170B50D46060014461AD0CCB114
:103A3000104600F02BFE00B16088A84212D100238E
:103A4000042109E0C3EBC302606801EB82028058E5
:103A500020B146F823005B1CAB42F3D3AB4201D14B
:103A6000012070BD002070BD0349884201D10120B2
:103A70007047002070470000DECAFAA12DE9FE4F12
:103A800092468946040003D0A08D20B1256B03E047
:103A9000002000F0FBB800250020E082A082207BFF
:103AA000C043800702D030221121DCE0B9F1000FC1
:103AB00061D0D5B32888C0B3D9F818000026D0F853
:103AC000008056E0A868006800EB0610019052D014
:103AD00058B3C6EBC600029009EB800001210090AC
:103AE00000F0DEFDDBF81830596888421AD80098DB
:103AF000DBF80C208069D768D0F80CC0674511D17D
:103B00009768D0F808C067450CD152684068824277
:103B100008D1186800F005FD0746584601F05EFF21
:103B2000874203D2182212219DE024E0DBF818001E
:103B3000006800F005FD029920F07E4259F821004E
:103B400020F07E40824201D01922ECE700984068C4
:103B500088B100988069006878B14146404500D23C
:103B600008468046DDE900105A4600F092F8761CBF
:103B70002DB1288804E01722D5E72122D3E70020C1
:103B8000B04206D9686820B150F826B0BBF1000FEA
:103B900098D1BAF1000F74D0A08D012806D9256BF9
:103BA0000C3503D0288808B1002658E0182259E0C7
:103BB000A868006800EB061B3BD0BBF1000F38D0B3
:103BC000C6EBC60001900AEB80000121009000F0D6
:103BD00067FDD9F8183059688842E7D80098D9F8B5
:103BE0000C208069D768D0F80CC06745DED1976893
:103BF000D0F808C06745D9D1526840688242D5D113
:103C0000186800F08EFC0746484601F0E7FE874240
:103C1000CCD3D9F81800006800F092FC20F07E4266
:103C200001985AF8200020F07E40824203D01922E9
:103C300018E0172216E0009840680028F9D0009894
:103C40008069006868B14146404500D20846804618
:103C50004A465846009900F01CF8761C3DB1288869
:103C600006E021221321204601F01EFB10E7002070
:103C7000B04206D9686820B150F82690B9F1000F1B
:103C800096D1A4F814804FF0010002E71EBCBDE8F5
:103C9000E08F70B504460E461546104601F09EFEB4
:103CA0000146A060B06900684843E06071686160E7
:103CB000726810442060A8690268920007D4D0E9B5
:103CC0000223D21A11448160A9696068C86070BD7E
:103CD00070B50546002621E0A9688369096801EBF3
:103CE00006141968890005D5D4E901129868FCF713
:103CF0009DFA08E0D3E90212891A626811449960BA
:103D000080696168C160D4E901010844606021688C
:103D1000884201D3E068081A761C60600DB12888DB
:103D200000E00020B04206D96868002803D050F8AF
:103D300026000028D0D170BD2DE9F04105460026AF
:103D40002BE0A968096801EB061481690A689200F2
:103D50000FD5A26889686068FCF768FAD4E9011099
:103D6000014461602068814201D3E168411A6160C9
:103D700012E0D4E90112114461602268914201D33A
:103D8000E168511A61608269D2E90237DB1B19448C
:103D9000916080696168C160761C0DB1288800E07F
:103DA0000020B04206D96868002803D050F82600E9
:103DB0000028C6D1BDE8F0812DE9FF4F95B09B46A4
:103DC0008946064600250FE2252877D1002427469C
:103DD000F84A0121059400E0044316F8013F203B16
:103DE00001FA03F01042F7D130782A2811D06FF091
:103DF0002F033078A0F13002092A16D8059A44F032
:103E0000020402EB820203EB42021044761C05908E
:103E1000EFE759F8042B0592002A03DA504244F4E4
:103E20000054059044F00204761C30782E2816D1F8
:103E300016F8010F44F004042A280DD06FF02F0269
:103E40003078A0F13003092B09D807EB870302EB88
:103E50004303C718761CF3E759F8047B761C3078C7
:103E60006C280FD006DC4C2817D068280DD06A28A3
:103E700014D104E0742810D07A280FD10DE044F456
:103E800000140AE044F4801401E044F44014727811
:103E9000824202D104F58014761C761C30786628A4
:103EA0000BD013DC582877D009DC002875D04528C2
:103EB000F6D04628F4D047281AD19DE118E06328AF
:103EC00035D0642879D0652812D195E1702873D057
:103ED00008DC6728F1D069286FD06E280DD06F28D4
:103EE00006D1B5E073282CD0752875D0782874D009
:103EF0005A46179990476D1C75E1C4F30250022889
:103F000009D003280DD0D9F8001004280DD00D6079
:103F100009F1040967E1D9F80010EA17C1E9005274
:103F2000F6E7D9F800100D80F2E70D70F0E719F808
:103F3000041B8DF8001000208DF80100EA460120D6
:103F400003E059F804AB4FF0FF3061074FF0000178
:103F500002D40DE008F101018846B9420FDA80452C
:103F6000F8DB1AF808100029F4D108E008F1010183
:103F700088468142FADB1AF808100029F6D1059824
:103F80005B46A0EB080721463846179A00F097FADF
:103F9000284400EB080507E04DE029E10DE01AF8A0
:103FA000010B5A4617999047B8F10108F7D25B46C2
:103FB00021463846179A13E142E00A220092C4F3E0
:103FC00002524FF0000A022A08D059F804CB032A03
:103FD0004FEAEC710AD00DE029E02AE009F107016F
:103FE00021F00702F2E802C1914609E00FFA8CFCC9
:103FF0004FEAEC71042A03D14FFA8CFC4FEAEC71C2
:10400000002907DA0A460021DCF1000C61EB02010D
:104010002D2202E0220504D52B228DF80420012256
:1040200003E0E20701D02022F7E7904659E00A2199
:1040300002E010220DE010214FF0000A00910BE089
:1040400010224FF0000A44F004040827009203E015
:1040500008224FF0000A0092C4F30252022A05D04F
:1040600059F804CB0021032A08D009E009F107011F
:1040700021F00702F2E802C1914605E01FFA8CFC2C
:10408000042A01D10CF0FF0C4FF00008220728D5BC
:10409000702806D0009B83F0100353EA0A0305D072
:1040A0000EE040228DF80420012208E05CEA0102C3
:1040B00006D030228DF804208DF8050002229046AB
:1040C000009B83F0080353EA0A030AD15CEA010269
:1040D00001D1620705D530228DF804204FF0010888
:1040E0007F1E582804D034A003900EA802900DE043
:1040F00036A0F9E753466046009AFCF763F8844619
:104100000398825C0298401E029002705CEA0100F3
:10411000F0D1029806A9081A00F1200A600702D51A
:1041200024F4803400E00127574502DDA7EB0A00A4
:1041300000E0002000EB0A01009005984144401A7D
:104140000590E00306D45B462146179A059800F0D7
:10415000B6F90544002706E001A85A46C05D179944
:1041600090476D1C7F1C4745F6DBE0030CD55B4692
:104170002146179A059800F0A2F9054404E0302082
:104180005A46179990476D1C0099481E00900029C7
:10419000F5DC08E0029802995A460078491C029121
:1041A000179990476D1CBAF10001AAF1010AF1DCE0
:1041B00065E10000092801003031323334353637EB
:1041C0003839616263646566000000003031323363
:1041D0003435363738394142434445460000000003
:1041E00000F05BF90544761C307800287FF4ECADD4
:1041F00019B0284600F04EB9620700D4062709F12D
:10420000070222F0070CFCE80223E14603F0004815
:104210005FEA080C02D00FF2702C0DE05FEA045C3C
:1042200002D50FF2682C07E05FEAC47C02D00FF2DF
:10423000602C01E0AFF2700C4FF0FF3823F0004328
:10424000CDF850C065280CD006DC452809D046289A
:104250001DD047283DD13DE0662818D067287ED183
:1042600038E00021112F01DB112000E0781CCDE99E
:10427000000106A90EA8FFF7BBFADDE90F010E9AAF
:1042800003910021009207F1010A04914DE04FF0E3
:1042900000400097CDE9011006A90EA8FFF7A8FA83
:1042A000DDE90F0203920E9B11990022DDF80CA0AC
:1042B0000093049211B9791C00EB010AB7EB0A00D4
:1042C00004D4C0F1FF3007F1010A0490AAEB070003
:1042D000019044E0012F00DA01270021112F01DDB8
:1042E000112000E03846CDE9000106A90EA8FFF72D
:1042F0007FFADDE90F010E9A0391002104910092EB
:10430000BA4621070CD40399514500DA8A46BAF11E
:10431000010F05DD009AAAF10101515C302908D096
:10432000B84202DA10F1040F06DA0121CDE90110DA
:1043300015E0AAF10101E9E7002805DC0499014430
:104340000491AAEB000102E0411C514500DD8A46C0
:104350000499401A401C01904FF000400290200741
:1043600004D40198504501DBCDF8048000208DF87D
:104370004F0002980DF14F07B0F1004F25D02B20D0
:104380000E9002984FF0020800280CDA404202908A
:104390002D200E9007E00A210298FCF711FB303126
:1043A000029007F8011DB8F10001A8F10108F2DC44
:1043B00002980028EFD1791E0E980870307800F02E
:1043C000200040F0450007F8020D12A8C01B00F1C4
:1043D00007081498007800B1012000EB0A01019849
:1043E00001EBE07105984144401A401E0590E0033E
:1043F00006D45B462146179A059800F060F80544FC
:104400001498007818B15A46179990476D1CE0032C
:1044100024D55B462146179A059800F050F80544CC
:104420001CE00498002807DBDDE90301884203DD76
:104430000098405C179901E0179930205A46904740
:10444000049805F10105401C04900198401E01905C
:1044500004D12E205A46179990476D1CBAF10001DD
:10446000AAF1010ADDDC05E017F8010B5A4617999D
:1044700090476D1CB8F10001A8F10108F4DC5B461F
:104480002146179A0598ABE62D0000002B0000008E
:104490002000000030BCBDE8C08F2DE9F04104468B
:1044A00000251E461746880404D405E0394620201E
:1044B000B0476D1C641EF9D52846BDE8F0812DE992
:1044C000F041044600251E469046C80301D530271A
:1044D00000E02027880404D505E041463846B0476F
:1044E0006D1C641EF9D52846BDE8F08179B1C0F392
:1044F000C6125143C91DC0F3415321F00701D940F1
:10450000C0F34340042804D0082807D104E0002069
:10451000704701EB021101E001EB0221C91DC8083F
:10452000704759B1C0F3C6125143C91D21F00701AC
:10453000C0F34150C140C91DC808704700207047F2
:1045400070B54021C0F34342022A1BD0394A20F003
:104550007E439C1A0D014E0193425FD029DC364AFE
:10456000A3EB0204934259D019DC402B57D0403BB7
:10457000B3F580234CD0802B37D0AB424FD12E499E
:10458000C91F4CE0C0F3C051C905C0F3C61241EACF
:10459000C21100F07F02114341F480213FE0A4F5F5
:1045A0004074F93C1FD00F2C35D0B44237D1234989
:1045B00035E0234BE21A9C421BD00BDC214AA218A7
:1045C0001DD0802A19D0AA4211D0A2F58062073AE4
:1045D00025D117E00F2A18D0B2420CD01A4BDA427C
:1045E0001DD11A491BE01A4919E01A4917E01A4966
:1045F00015E01A4913E01A4911E01A490FE0194968
:1046000080390CE01449C91D09E014490F3106E056
:104610001049803903E00E490F3100E0114600F0E7
:1046200080420A4300F00051114300F0006008434B
:1046300070BD000040040600470404004010040060
:1046400000047E00000482FF00F801FF4010820198
:1046500040080400C00004004004840040088400B6
:1046600040108400C000840070B514460D46064614
:1046700000F00CF840B17068C5EBC50110EB81008B
:1046800002D04460012070BD002070BD28B1416897
:1046900019B1408808B10120704700207047000020
:1046A00010B502002AD0164B1068B3EBC01F03D020
:1046B000144BB3EBC01F01D1012000E000200842E1
:1046C0009069406802D01F3020F01F005369D9B2B2
:1046D000012900D000211C0A07E0012907D09369B5
:1046E00053F821305843491C1AB1234602E00123F4
:1046F000F8E700238B42F0DC002800DC002010BD2E
:10470000006000420060000208B509A1096800913C
:1047100048B101789DF80020914204D104226946F5
:10472000FBF7A8FD08B1002008BD012008BD00006E
:10473000038404842DE9FF4F83B0DDE91141B1FB0F
:10474000F4FADDE91370DDE91895DDE91668791BE7
:1047500061430291DDF840E0DDF854C0411B019156
:10476000ACEB0801414306FB0090009103EB800194
:10477000049B9E4502D19FED361A01E0B7EE001A68
:104780007E43664302EB86024FF0000902EB840B86
:1047900058E0002753E000BF0EEB8900002690EDA3
:1047A000000A104620EE010A3CE0002325F0030C2D
:1047B00022E000BFD1ED002A90ED003A00EB84002A
:1047C00091ED012A02EE830AD0ED002A00EB84006D
:1047D000D1ED021AD1ED030A103102EE220A90ED5A
:1047E000002A00EB84001B1D01EE820AD0ED001AA6
:1047F00000EB840000EEA10A9C45DBDC09E000BF71
:10480000F1EC010AD0ED001A00EB84005B1C00EE15
:10481000A10AAB42F4DB029B761C00EB8300019BF8
:1048200001EB83014645C0DB00987F1C01EB800152
:10483000049800EB890009F1010980ED000A574551
:10484000AAD3121D9345A4D807B000F003B8000006
:104850000000000030BCBDE8C08F00002DE9FF4F14
:1048600086B017ACDDE91EC794E845009CFBF0F468
:1048700000FB14C4041B94FBF0F5DDE91C9100FB64
:10488000154E99FBF2F502FB1594141B94FBF2F5FF
:1048900002FB15450CEB0004641E94FBF0FC09EBD5
:1048A0000204641E94FBF2F8A7EB0E04DDE9143B4E
:1048B000491B1144491E91FBF2F7DDF86CA004443A
:1048C000641E94FBF0F4CDE9008CDDF858C0B3FB16
:1048D000FAF102FB0CF200FB142258435A43401A2F
:1048E000CDE90402301B48431A9A039001FB06F0FD
:1048F000D21B5043DDE9008C029008FB06C0BBFBD5
:10490000FAFB099A484302EB8002079E1398B042D3
:1049100002D1DFED2A0A01E0F7EE000A169809EB52
:10492000050606FB00E05843089B4FF0000803EB28
:10493000800E40463BE0002633E01398002500EB54
:10494000880090ED000A704620EE200A1CE000234B
:1049500011E000BF00EB810C06E000BFB2EC011AD1
:10496000F0EC011A01EE210A6045F7D3DDF810C022
:104970005B1C00EB8C00A342ECDB059B6D1C00EB89
:104980008300039B02EB8302BD42E0DB0298761CAE
:1049900002EB8002079800EB880008F1010880ED27
:1049A000000A5E45C9D30EEB810E09F10100814674
:1049B0005045C0D30AB000F003B80000000000006A
:1049C00030BCBDE8C08F00002DE9FF4F2DED020B7C
:1049D00082B0DDE91709DDE914E8119A00FB08F05F
:1049E000504303EB800A0027DDF84CB0199CA8E087
:1049F0006342002B00DC0023ABEB0405454500D3EC
:104A00004546E0180699504301EB800103FB02F094
:104A1000EB1AABEB030555430195A8EB0305554392
:104A200000950AEB800002FB03F5F0EE400A002639
:104A30007AE0002325F00F0C63E000BF91ED004AFF
:104A4000D0ED004A91ED013A90ED011A44EE840A4E
:104A5000D1ED023AD0ED022A91ED032AD0ED031AEE
:104A600091ED044A41EE030AD0ED044A90ED063A76
:104A700090ED071A42EEA30AD1ED053AD1ED062AD0
:104A800041EE820A90ED052AD1ED071A44EE840A20
:104A9000D1ED084A90ED084A42EE230AD0ED093ADA
:104AA00091ED0A2A43EE220A91ED093AD0ED0A2A45
:104AB00041EE210A91ED0B1AD0ED0B1A44EE240AB7
:104AC00091ED0C4AD0ED0C4A43EE830A91ED0D3A7C
:104AD000D0ED0D3A42EE820AD0ED0E2A91ED0F2A6A
:104AE00041EE810A91ED0E1AD0ED0F1A403040319F
:104AF000103344EE840A43EE830A42EE810A41EE0B
:104B0000820A9C459ADC06E0B0EC011A5B1CF1ECD1
:104B1000011A41EE210AAB42F6DB019B761C01EB48
:104B20008301009B00EB83004E4582DB05987F1CD0
:104B3000C0ED000A1299059800EB810005901A98C3
:104B400004447745FFF454AF08B000F000B830BC1F
:104B5000BDE8C08F2DE9FF4F89462DED028B8FB048
:104B6000DDE92C035843DDE92824DDE926B3DDE93E
:104B70002075DDE91EA6D21A0D92BBF1010F01D1FD
:104B8000012805D0B34501D101287CD000200BE1DC
:104B90002A98CDF838A01844684313997043DDF87B
:104BA00050B001EB80000C90CDF82890ABF1006084
:104BB0009FED808ADDE92312514301FB06F8B0F135
:104BC000807F31D2002027E0BAF1000F04D00E9888
:104BD000B0EC010A0E9001E0B0EE480A25980D9A5B
:104BE0002799CDE90840CDE9061222AB0DF10C0C56
:104BF00093E8070000968CE80700CDE901755B4655
:104C00000C9A0A991198FFF7DFFE0A980BEB880BB4
:104C1000001D0A9009F101008146B842D4D30FB0BB
:104C2000BDEC028B00F0C8B84FEA8800FEF732FDF9
:104C30000B90002037E000200AE000BF0BEB800162
:104C400091ED000A0B9901EB8001401C81ED000AF7
:104C50008045F3D8BAF1000F04D00E98B0EC010AE9
:104C60000E9001E0B0EE480A2599279806AB0D9A00
:104C7000099183E8150022AB93E8070003AB009687
:104C800083E8070000E01AE0CDE90175DDE90A13C9
:104C90000C9A1198FFF798FE0A980BEB880B001DF1
:104CA0000A9009F101008146B842C4D30B980FB0B5
:104CB000BDEC028B04B000F082B8FEF7BDBC002052
:104CC00032E06042002800DC00202B992B1B8B4235
:104CD00000D30B462A99221801FB0521139A714330
:104CE00002EB8102BAF1000101D08C4600E0CC4613
:104CF000DDF89C801B1A0D99CDF818800993CDE939
:104D00000710DDE92301CDE90401CDE90275CDE904
:104D100000C64946149B1198FFF70CFD259809EB36
:104D2000870904440BF10100834622988345C8D3C8
:104D300075E76042002800DC00202B992A1B8A427C
:104D400000D30A462A99231801FB0531139B7143AE
:104D500003EB810EBAF1000101D00B4600E04B4697
:104D60000D99CDE90A10DDF89CC0121ACDF824C0C7
:104D70000C92DDE92321CDE90621DDF8B4C02C98A1
:104D8000CDF814C0CDF820B0CDE903508DE8C800AF
:104D900072464946149B1198FFF760FD259809EB70
:104DA0008709044408F10100229980468842C0D353
:104DB00035E70000000000001FBCBDE8E08F30BCFC
:104DC000BDE8C04FFFF779BFF0B5042BDDE905540E
:104DD00000EB840427D0082B27D12FE000236E0896
:104DE00012E00F783F0902EB870797ED000A80ED8C
:104DF000000A11F8017B07F00F0702EB870797ED18
:104E0000000A80ED010A08301F465B1CB742E8D358
:104E1000EB0708D011F8013B1B0902EB830393ED6C
:104E2000000AA0EC010AA042D8D3F0BD11F8013B62
:104E300002EB830393ED000AA0EC010AA042F5D334
:104E4000F0BD70B5C66B416B04460025AEB1E9B14B
:104E5000A1630120226CB0470220226CA16BB047F5
:104E6000A06BFEF74EFCA06301460320226CB04706
:104E7000A06B6D1C0028EFD108E039B1A163A06BD5
:104E8000FEF73FFC6D1CA0630028F8D1284670BDDA
:104E900003460020596B002908D0CB600A69401CEA
:104EA0008A4203D0002A01D01146F6E770472DE967
:104EB000F041446B002594B1012600272079C007FA
:104EC00007D0216A204611B18847304600E03846B5
:104ED00005442069A04202D008B10446EEE7284606
:104EE000BDE8F08110B570B169B162B1074C0460E2
:104EF000D1E90041C0E90141D2E90012C0E9031241
:104F00000123184610BD002010BD0000DECAFAA122
:104F100010B518B1044A0168914200D0002004463F
:104F2000FEF744FB204610BD0001C0A130B44AB1D9
:104F300040B139B1074C1368A34206D130BC0C32E2
:104F4000FEF770BD30BC0020704730BC1C32FEF74D
:104F500041BD0000DECAFAA130B44AB140B139B156
:104F6000064C1368A34206D130BC121DFEF75ABD91
:104F700030BC0020704730BCFEF72CBDDECAFAA161
:104F800038B50D46FFF7C4FF04000DD00DB1002069
:104F90002880A08D00B1206B6946FEF7BDFB30B1C3
:104FA00005B12880009838BD1022114602E0182271
:104FB0001121204600F078F9002038BD034810B5D3
:104FC0004469FEF7F3FA204610BD0000AC5B000810
:104FD0002DE9F04F89B00646DDE912104FF0000AC6
:104FE000554663F30705CDE9011361F30F2590469C
:104FF000544660F317458346FEF78CFB304F0100A3
:105000001CD0304800680123C0F30220042806D0D9
:105010002D48182202600268182A13D00BE02B4892
:105020001422836083680BB1521EFBD1826812B9CF
:105030000068401C0AD00846FEF7D9FBF86909B0A1
:1050400000F04AB803600268002AFCD10846FEF767
:10505000CEFBFEF7ABFAE6B11D49C8F80010C6F862
:10506000008000F026FAB0B1FFF7A8FF8146C5F333
:105070000721E8B2002200F04CF90546C9F30721E8
:1050800009F0FF00002200F044F9854205D07C6859
:105090000BE0386AD3E73C6807E00EA00068009098
:1050A0006846FFF731FB10B9BC68C6F800A0DDE91F
:1050B00001105A4600F02DF9C8F844002046BEE71A
:1050C000AC5B0008002004E0084C025800300240AD
:1050D0000001C0A10384048430BCBDE8C08F00007F
:1050E00010B5FFF715FF20B1BDE81040103000F0FB
:1050F000DAB90148806910BDAC5B00082DE9F04FBA
:1051000091B00C46FFF704FF050013D0B4B13BA1EA
:105110002068FEF7A9FC06004FF0000B11D02068B4
:105120000190D4E90301CDE90401D4E90101CDE9FD
:10513000020143E0002011B000F066B811221021F6
:1051400058E001212046D4F804A0FFF7A9FA8046D0
:1051500004F11C00D4F8209001211090FFF7A0FA70
:1051600007461422274906A8FBF760F80120B8F18A
:10517000000F02D0ADF81E0002E0ADF81EB0002412
:1051800008941FB1ADF82600109802E0ADF826B0E3
:1051900000200A90B9F1000F02D10FB1132206E0EE
:1051A000BAF1000F05D1B8F1000F02D01222102180
:1051B0001FE0142206A901A8FBF738F886F00102C7
:1051C000144602A905F11C00FEF7DEFB68B1224679
:1051D00004A905F12400FEF7D7FB40B10320E860E5
:1051E0002846FFF755FE2846A5E7122200E01322C5
:1051F0001621284600F058F89CE70000696E697493
:1052000000000000045C000830BCBDE8C08F70B531
:10521000FFF77EFE041E08D0207B800706D41022F4
:105220001121204600F040F8002070BD2046FFF715
:105230003EFEE06B60B1656B55B1D4E90F32294693
:10524000002098472869A84202D008B10546F4E733
:10525000012070BD70B515460E46FFF759FE044695
:105260002A463146FEF70AFC00281CD0A08D08B162
:10527000256B00E00025012802D9266B0C360DE0D5
:1052800000260BE02846FEF723FD2046FFF7D9FD58
:105290003046FEF751FDE08A401CE082E08AA18A98
:1052A0008842EFD380B270BD002802D0103000F0E9
:1052B0001BB9704738B50D46FFF72AFE040008D029
:1052C0000DB100202880A08D012805D9206B0C305D
:1052D00003E0102211460BE000206946FEF71CFA9D
:1052E00018B105B12880009838BD18221121204638
:1052F000FFF7DAFF002038BD02460068010A0120EE
:1053000004E05368491E53F8213058430029F8D16E
:105310007047000640EA014040EA02207047000062
:105320002DE9FF4F2DED020B86B0D0F804B0DDE97A
:10533000154609995568D1F804C071680291B0F812
:1053400000E0B0F8029009980021008800900998C8
:10535000B2F800804788508832887688CDF814C02B
:105360003BB1CC46CDF804C0012804D04FF0010C6D
:1053700003E0F446F6E74FF0000CCDF810C0B8F1AA
:10538000010F19D0012800D0002000B20390BBB15A
:105390004846DFED421A904209D19CB10098B042D4
:1053A00005D18BB170468CB1BC4660451BD06FF007
:1053B00002007243029B11E00128E5D07042E4E74D
:1053C0007046E6E73846EAE74846ECE7DDF800C015
:1053D000EBE700BF491CE3EC011A89B28A42F9DC11
:1053E0000CB000F05DB8029800EB810A44B100985F
:1053F000099A5668B0EE611ADC461BB1724615E098
:105400003846F5E74A4611E09CED002AD6ED002A21
:1054100002EE221AA3B3C8460CEB880C8CB34FF0F3
:10542000010800BF521E06EB880692B2002AEBD19B
:1054300020EE011A95ED002A401E80B200EE821A7D
:10544000AAEC011A049A05EB820504B3009A121A19
:105450007A43059E002806EB8206CBD1CCB100989A
:10546000084481B2BBB1012203980BEB820B05EB20
:1054700080050198401E0004000C0190B3D1AFE7F5
:1054800000E002E04FF00108C6E7B846CAE73A1A62
:10549000DFE73846E4E74A46E6E7000000000000A0
:1054A00030BCBDE8C08F002201680270026008466F
:1054B00070470120704720B1806910B103C8FFF721
:1054C00015B80120704710B1806900B1014609B1DB
:1054D000886870470020704720B1816911B1406928
:1054E0008068704700207047037813F0FF0F01D0E9
:1054F000002070470170016862F31F2101600120E4
:10550000704700002DE9F04F04468069ADB0018876
:1055100009B1426800E00022526832B109B1426824
:1055200000E000225268136800E00023012902D93C
:1055300042680C3200E00022526842B1012902D9CF
:1055400042680C3200E000225268166800E0002633
:10555000022902D94268183200E0002252683AB1AA
:10556000022902D94268183200E00022526812680B
:10557000022990460BD9426812F1180F07D032F871
:10558000185F012D03D9526812B1526800E0002261
:10559000022902D94568183500E000256D6845B13B
:1055A000022902D94068183000E000204068806875
:1055B00000E000200090D86841681A91F1684D68B9
:1055C0001395CD682695D1F80890C168239180681D
:1055D0001E90208D80B21690A08D80B22590E06B39
:1055E000018889B20791808880B22990208E80B28C
:1055F0002890A08E80B22790D8F80C00D0E901AB9B
:10560000E0691D90986980682490D8F81800806837
:10561000069012B19069806800E000202290B06985
:10562000216A87680098FFF74EFF05461990009899
:10563000FFF752FF21900098FFF73DFF2B90606A23
:1056400000B954482799ABF101021C90491E02FB96
:1056500001B02899AAF101022A90491E02FB01A07B
:105660001B90D8F8183000201968C1F3C61CC1F38C
:1056700041522CFA02FCC1F34341042901D008290C
:105680002DD1DA685AB3A1690C88032C04D9D1F85A
:10569000048008F1240801E04FF00008D8F80480E5
:1056A000B8F1000F0BD0032C02D94868243000E079
:1056B00000204068006810B18169896800E000211D
:1056C00080690C461A994068CDE9001099686346D4
:1056D0002046FFF779FB211E01D0084600E006981E
:1056E0001F900798C0F1000800204CE02998414223
:1056F000C8F10000002800DC0020864623982A9A82
:10570000A0EB0800904200D31046279A289B12B2C3
:105710001BB21B9CCDE90E32CDE90C84CDE90A0108
:105720001D9BCDE9083E1698CDE9049ACDE906B057
:1057300022981E9B139A1A998DE80F003946002073
:105740001F9B249AFFF706FA002413E08760314676
:10575000DDF870C02B460846139AE047139807EB14
:105760008007219805441998291A2B98814200DB5B
:10577000199D641CB0694C45E8D3C16881602599C6
:1057800020988844401C269920908842AED32DB0A2
:1057900000F002B8D959000830BCBDE8C08F2DE92F
:1057A000F043064680698BB0018809B1426800E089
:1057B0000022526832B109B1426800E0002252680A
:1057C000176800E0002719B142680AB1128800E0AA
:1057D0000022012902D943680C3300E000235B68F2
:1057E0003BB1012902D943680C3300E000235B6818
:1057F0001B6800252C46032A04D0022A1DD0012A4A
:105800003AD05EE009B1426800E00022526832B14D
:1058100009B1426800E000225268556800E00025A6
:1058200009B1426800E00022526892B309B14068B1
:1058300000E000204068846843E009B1426800E06D
:105840000022526832B109B1426800E00022526879
:10585000556800E00025022902D94268183200E0AC
:1058600000225268AAB1022902D94068183000E02B
:1058700000204068046824E0022902D942681832F6
:1058800000E0002252684AB1022903D94268183266
:1058900001E015E000225268156800E000250229A9
:1058A00002D94268183200E00022526842B102294F
:1058B00002D94068183000E000204068446800E0E9
:1058C00000249A69E168B1F80C90B1F80480D968B5
:1058D0009368888989888AB281B202A800F062F947
:1058E000B8698368F868818880898AB281B204A81F
:1058F00000F058F9A8698368E868818880898AB2CD
:1059000081B206A800F04EF9A0691FFA88F21FFACA
:1059100089F1836808A800F045F902A996F92500E5
:10592000CDE9000196F924301C3608AA96EC020A4B
:1059300006A904A8FFF7F4FC0BB0BDE8F08370B52E
:1059400005468069018809B1426800E0002252687A
:1059500032B109B1426800E000225268146800E0E8
:105960000024012902D942680C3200E0002252686A
:1059700042B1012902D940680C3000E000204068A3
:10598000066800E00026E86978B14068012804F163
:10599000080016D0FFF7B0FC0246E869214683688C
:1059A0003046BDE8704000F077B804F10800FFF71A
:1059B000A3FC024621463046BDE87040002300F0BB
:1059C00049B8FFF799FC0246E869214683683046EA
:1059D000BDE8704000F0C2B8704700000146C068E2
:1059E0004A698969C068D26809685043044A11400D
:1059F000A1F58022C03A01D1C01DC0087047000047
:105A0000FFFF7F012DE9F0410B3020F00706104D1C
:105A100019E02068B04215D3B0420AD9871B201D77
:105A2000D4F80480FAF702FCA019C0E900782860D5
:105A300004E060682860201DFAF7F8FB201D26604E
:105A4000BDE8F081251D2C68002CE2D10020F7E78D
:105A50000800002030B58B6984696FF0030000EB0B
:105A600082019D68A26868181144DFED0A0A0CE003
:105A700090ED000AB5EEC00AF1EE10FA01D2B0EED8
:105A8000600A81ED000A001F091F9A688242EFD95F
:105A900030BD00000000000030B5D3ED021A93EDD8
:105AA000000A93ED011A8B6984696FF00305F5EE26
:105AB000C01A05EB82019868A268F1EE10FA08445A
:105AC000114444D2B5EEC01AF1EE10FA0FD112E033
:105AD000D0ED000AF4EEC00AF1EE10FA03D270EE37
